:400000000020002011000000254B0000254B000010B505F043F904F08DFDC04610B5264C12232360182005F09DF8E0221201234B1A60234B234A1A60B822520122490A6010
:400040002249196022490A602249196022490A60224A1A6080214900214A1160214A1A60FE210902204A1160204A1A602022204B1A6022321F4B1A6003321F4B1A60013AE1
:400080001E4B1A60013A1E4B1A60023A1D4B1A60013A1D4B1A601D490B2004F0ABFF0B2004F088FF00221A4B1A60002005F006F91123236010BDC0463000104008030140C4
:4000C0000000014042FF00801403014045FF00801003014044FF00800C03014043FF00800403014041FF00800003014040FF008028000340300101401C0101401801014019
:4001000014010140100101400C010140515300000C02074010B572B60822184B1A600123174A13608C218903164A11608021C901154A1160154A1360154A164B1A608023F0
:40014000154A13601549164A1160164A1360C922154B1A60154A164B1A602022154B1A60C032154B1A60DD3A144B1A600432144B1A60FFF753FF04F0B9FC10BD00030240C2
:4001800000000440080004400C00044018000440B06DDB000801044000020440806D1B00080204401802044000030440766C0000080304400C030440180304400004044052
:4001C0001804044010B5064C2378002B07D1054B002B02D0044800E000BF0123237010BDD8060020000000006C840000084B10B5002B03D00749084800E000BF0748036831
:40020000002B00D110BD064B002BFBD09847F9E700000000DC0600206C840000900000200000000010B580691E4B9B78062B37D89B001D4AD3589F461830012100F02EFA4F
:4002400003F07CFC2CE028300A2100F027FA03F0EBFA02F011FE03F015FB21E03830322100F01CFA01F04CFA01F074FA18E04830642100F013FA13E05830FA21490000F07E
:400280000DFA02F069FE0BE06830FA21890000F005FA02F073FE03E07830044900F0FEF910BDC04690080020788400001027000010B5846903694361124B036101222523FA
:4002C000C25420001830012100F0E8F9200028300A2100F0E3F920003830322100F0DEF920004830642100F0D9F920005830FA21490000F0D3F920006830FA21890000F089
:40030000CDF910BD250200000369436100230361252283547047C04610B58469094B9B78002B0AD1084B1B7ADB0701D402F00AFD6421200000F0B2F902E0352006F040FC31
:4003400010BDC04690080020D80E002010B5030080691A695A61044A1A6101212522995400F09CF910BDC046190300000369436100230361252283547047C04610B52B4BBD
:400380009B780D2B51D89B00294AD3589F460122284B1A7401F01EFA47E00222254B1A7401F0B4FA41E00422224B1A7401F0A6FD3BE008221F4B1A7401F0CAFE35E0102283
:4003C0001C4B1A7401F050FB2FE02022194B1A7401F000FC29E00122164B1A7501F04CFC23E00222134B1A7501F084FC1DE00422104B1A7501F082FD17E008220D4B1A753D
:4004000001F0A6FE11E020220A4B1A7501F0E2FB0BE0042308221343064A137501F0ACFC03E0044B00221A741A7510BD9008002094840000D80D002003694361024B03616B
:4004400001222523C25470477D0300000369436100230361252283547047C04610B58469534B9B78002B00D0A1E0206900F01EFB6369984200D185E04E4A127C012A00D0E4
:4004800080E098434C4B00221A705B68984204D1494A137A0133137202E00022464B1A72454B58601B7A042B7DD9434B5B7A984231D0414B5872202875D880003F4B1B584A
:4004C0009F460023002200210F2000F0E5F96AE00023002201210F2000F0DEF963E00023002202210F2000F0D7F95CE00023002203210F2000F0D0F955E000230022042147
:400500000F2000F0C9F94EE00023002205210F2000F0C2F947E0202845D88000284B1B589F460023002206210F2000F0B5F93AE00023002207210F2000F0AEF933E00023D4
:40054000002208210F2000F0A7F92CE00023002209210F2000F0A0F925E0002300220A210F2000F099F91EE0002300220B210F2000F092F917E0002300220C210F2000F077
:400580008BF910E00C4A0023137213780133DBB21370042B07D90022074B5A7200230D210F2000F079F90A21200000F077F810BD90080020040E0020F4060020CC840000FE
:4005C0005085000010B5846903694361064B036101222523C2540021206900F055FA0121200000F05BF810BD5D0400000369436100230361252283547047C04670B50600F5
:400600000D00064B9B689847054C6368984723689847044B5E805D60FEE7C0461C8900001089000088080020F0B5474680B404000F0015009846C368002B03D10100462055
:40064000FFF7DCFF084EB3689847A560A5824346E38227612100054800F0FCFE73689847002004BC9046F0BD1C8900000007002070B50400074DAB6898470023A360A382BC
:400680000133E3822100044800F0FAFE6B689847002070BD1C8900000007002070B505000E00064CA3689847AE60290004480C3000F0D0FE63689847002070BD1C890000F4
:4006C0000007002070B505002523C45C002C18D10D4B9B6898472423EB5C002B05D10B4A137824216B54013B137029000848183000F0B0FEAB6828009847034B5B68984757
:4007000000E0FF24200070BD1C8900009400002000070020064B9B6904E024229A5C824204D05B68002BF8D1002000E01800704700070020F0B54F4680B484B00D0016006A
:4007400001930AAB1F780BAB1B78994603AB187059709A70DF700800FFF7DCFF041E40D00369002B3FD0224B9B689847214A9388D2889B1A3A1D93422DD34B46002B0CD0C0
:40078000042203A91B4800F0F5FD002F14D0BAB20199184800F0EEFD0EE0002203ABDA70002F04D0BAB20199124800F0F3FD042203A9104800F0EEFD238C01339BB22384A7
:4007C000618C1A1C8B4200D20A1C6284084B5B689847002008E029043143C020FF30FFF70DFF002000E0FF2004B004BC9146F0BD1C890000A402002030B583B0254B5A6AAE
:4008000001325A621C6821E0A368002B01D0013BA360A368002B16D1E368002B01D0200098476568E38A012B05D12100194800F027FE2C000AE0A28AA260002B05D0013B48
:40084000E3822C0002E0646800E02C00002CDBD1104BDC6817E06568A368002B01D0013BA360A368002B0DD1A27B617B207B01930093FFF75FFF002804D1210005480C30E2
:4008800000F0FEFD2C00002CE5D1012006F002F803B030BD0007002030B583B0094C6468E4050BD1084C647801250195009313000A0001002000FFF73DFF00E0FF2003B0C8
:4008C00030BDC04600ED00E09008002010B5044C23689847A3689847024800F035FD10BD10890000A4020020F8B5314B5B689847304B1B689847304B5B69002B01D104F0A7
:40090000A7FC2E4B1A685B68934305D1284B1B6898470022294B1A60294B9B79002B03D103F0CEFF03F0BCFE264BDB889BB2002BE1D0204B9D68A847234C04222100214856
:4009400000F008FDE278002A04D092B21F491D4800F000FD174B5E68B0471D4B9C6923E02423E25C184B5B789A421CD12369002B15D0A847164F7B6ABB62B0472000236984
:400980009847A8477B6ABA6A9B1ABB62B0473B8DA28B934203D9A3830B4B9B78E383238C013B2384A7E76468002CD9D1A3E7C046108900001C890000040E0020B40700205F
:4009C000D80E0020A402002090080020940800200007002070B504008368002B17D0C368002B14D003681B68984723689D68A168606806F0F5F9A8472368DD68E06863684C
:400A00005843A1686423594306F0EAF9A84770BD10B504004068FFF7DDFFA36801221A71002010BD10B543688268002111711B685B689847002010BD4368D8687047C0465A
:400A400010B5406864290BD8C160002903D0FFF7C1FF002005E003685B689847002000E0FF2010BD436898687047C04610B540688160002902D0FFF7ADFF02E003685B6865
:400A80009847002010BDC04610B5002807D00368002B06D01B68002B05D0984704E0FF2002E0FF2000E0FF2010BDC04610B5002807D00368002B07D09B68002B07D09847E7
:400AC00007E00120404204E00120404201E00120404210BD10B5002807D00368002B06D0DB68002B05D0984704E0FF2002E0FF2000E0FF2010BDC04610B5002807D003683D
:400B0000002B06D01B68002B05D0984704E0FF2002E0FF2000E0FF2010BDC04670B546680024002509E0DB69002120009847002802D00123A3401D430134B36920229A5C29
:400B40009442F0DB280070BD10B54468836800221A702000FFF78CFDA3695B689847002010BDC04670B505004468A3691B689847A3699B6998472223A269D25C0023210042
:400B80002000FFF751FDAB6801221A70002070BD10B50469A3699B689847002805D1A369DB689847A3699B69984710BD70B5446823685B68DE6A0022012100200AE063683C
:400BC0009D5C0123AB40334000D00B00184349000132D2B2237A9A42F1D3637A002B05D0430801E058405B08002BFBD170BDC04670B54468836800251D712000FFF738FD1F
:400C00003423E554013BE25C92000021A06907F024FC0021206AFFF75DFFE0690021FFF759FF002070BDC04670B50500446800223423E2540021206AFFF726FFE06900211A
:400C4000FFF722FFAB6801221A71002070BDC04610B582B003695C68606A00280AD0FFF725FF002806D03423E25C333B9340A26A1343A3623422A35C0133DBB2A354013AB9
:400C8000A15C013AA25C8A18934209DB00223423E254636A002B03D0A36AE3620023A3620021206AFFF716FF0021E069FFF712FF228E6B46DA806B46991DDB889BB25A1E3E
:400CC00092B20A80002BF6D13433E35C3322A25C934205D29B00A269D158E069FFF7FAFE3423E35C01219940206AFFF7F3FE02B010BDC04643683320185C904206D99B69DB
:400D00009200D058C8400123184000E00020704710B543685A7919791868FFF7EBFF10BDF8B545680024012600270EE063006A68944663445A7819782868FFF7DBFF002861
:400D400000D0374376000134E4B22B7A9C42EDD33800F8BD10B540683324045D944212D9002B08D0836992009A1801238B4011680B43136007E0836992009A1801238B4070
:400D8000116899431160002010BDC04610B50B004068427901790068FFF7DCFF10BDC04670B50E00456800240DE061006B689C466144012333404A7809782868FFF7CAFFEC
:400DC00076080134E4B22B7A9C42EED3002070BD70B5040045682B689847AB689847A36801221A71002070BD10B54468836800221A71E368984763689847002010BDC04609
:400E000010B543681A7D8A4203D91B690800984700E0002010BDC046836800221A7000207047C04610B5436819791868FFF7E8FF10BDC04610B504004368186883681B79AC
:400E4000002B02D10021FFF757FEA36801221A70002010BDF0B557464E464546E0B484B04768042203A9786800F074FA3868FFF71DFE0390042203A9786800F07BFA7B683D
:400E80001B687A7A9446160000229146013A9046002100220091019214E01A1D1B68397A002905D0994500D29946984500D998461C00002500980199001969410090019180
:400EC000013E1300002EE8D13B7A002B0FD04446002500980199001BA9414C460025001BA9416246023AD31706F006F805E0624600230098019905F0FFFF04B01CBC90465F
:400F00009946A246F0BDC04610B504004368586800F01AFAA36800221A70002010BDC04630B583B00500446800212068FFF7ACFD606800F009FA08E02068FFF7B7FD0190DE
:400F4000042201A9606800F015FA63689A88DB889A42F1D1AB6801221A70002003B030BD836801221A7000207047C046836800221A7000207047C04600B583B0019143685E
:400F80005A68186801A907F05FFA002003B000BD00B583B043680022019219685A6801A807F052FA019803B000BDC046836801221A7000207047C046836800221A700020B3
:400FC0007047C04670B50D00012408006040C0B204F08EFA68086040C0B204F09DFAA8086040C0B204F0ACFAE8086040C0B204F0BBFA28096040C0B204F0CAFA6809604027
:40100000C0B204F0D9FAA8096040C0B204F0E8FAE8094440E0B204F0F7FA002070BDC04610B504F071FA002801D1012400E0002404F07EFA002801D1022300E000231C436B
:4010400004F08AFA002801D1043000E00020044304F096FA002801D1083000E00020044304F0A2FA002801D1103000E00020044304F0AEFA002801D1203000E00020044348
:4010800004F0BAFA002801D1403000E00020044304F0C6FA002801D1803000E00020204310BDC046836801221A7000207047C046836800221A7000207047C04670B50C0029
:4010C00001252800084004F0B3FA6008284004F0C3FAA008284004F0D3FAE008284004F0E3FA2009284004F0F3FA002070BDC04610B504F0A9FA002801D0012400E0002403
:4011000004F0B6FA002801D0022000E00020044304F0C2FA002801D0042000E00020044304F0CEFA002801D0082000E00020044304F0DAFA002801D0102000E0002020431D
:4011400010BDC0460020704770B54468836800251D702000FFF78CFAE5612562002070BD70B50D0044682000FFF782FA002D1BD0E56125622968A069FFF7ACFC236A5B68C4
:40118000002B15D00B4A934207D9DB0B9BB2013221002000FFF748FA0AE09AB2002321002000FFF741FA03E0616AA069FFF792FC002070BDFF7F000070B50500446820006F
:4011C000FFF756FA0023E36123620021A069FFF75BFC616AA069FFF77DFCAB6801221A70002070BD70B505000469C38A012B09D1236A5B685B045B0C83820022C282002B60
:4012000002D024E0002B22D1236A083323625B68013301D1E3692362236A1968A069FFF759FC236A5B680A4A934207D9094BAB82236A5B68DB0B0133EB8208E0002B03D1D9
:40124000AB820133EB8202E0AB820023EB8270BDFF7F00000080FFFFF8B5070015001E008488641AA4B29C4206D3036859183200280007F0E9F80BE003689C46614422004D
:40128000280007F0E1F828193968321B07F0DCF8F8BDC046F8B5070015001E008488641AA4B29C4206D3006840181A00290007F0CBF80AE0036858182200290007F0C4F883
:4012C00038682919321B07F0BFF8F8BD4389CB189BB243818288934201D39B1A4381C388C91889B2C1808A4202D2C280438903817047C04603898B4204D28288521A9B1881
:40130000038101E05B1A0381C388C91889B2C1808388994202D9C380038943817047C046C3888B4204D80023C380438903810AE05B1AC3800389C91889B20181838899423A
:4013400001D3C91A018170470023C380438103817047C04670B50500080014002989130002002800FFF778FF21002800FFF7D8FF200070BD70B505000800140069891300C2
:4013800002002800FFF786FF21002800FFF79EFF200070BD70B505000E0014001100FFF7A9FF2989230032002800FFF773FF200070BDC04600E018000368002BFBD1704769
:4013C00070B506000D0014001000FFF7F3FF336898420CD025606B6863606B68002B01D1746000E01C606C60B3680133B36070BD70B506000D0014001000FFF7DBFF33681B
:4014000098420CD02B68236065602B68002B01D1346000E05C602C60B3680133B36070BD70B504000D000800FFF7C4FF216888420ED0002908D12560656000232B606B6053
:40144000A3680133A36003E02A002000FFF7D0FF70BDC04670B504000D000800FFF7AAFF236898420BD06168002904D129002000FFF7D6FF03E02A002000FFF7A1FF70BD1D
:4014800070B505000C000800FFF794FF2B68984215D12368002B02D163682B6001E062685A606368002B02D123686B6001E022681A60002323606360AB68013BAB6070BDDA
:4014C00010B505F0D7F9024805F010FA10BDC046F907000010B503F0E9FE10BD10B503F0D7FE10BD10B503F0D9FE10BD10B501F02FF8012005F066FA10BDC04610B503F046
:40150000BDF9012005F0F6FA10BDC04610B572B603F056FB174B1B685B0725D50022154B1A60154B1B78042B03D90132124B5A700BE0042B09D8104A917850180F4C2468A9
:40154000047101319170013313700B4B1B78052B03D1094B01225A729A72074B9B78052B02D10022044B9A7062B605F02BF905F023F910BDD40D00202C070020D00D00208D
:40158000104B1B78052B02D100210E4A5172002B08D00C4AD17A501800790131D172013B137000E00020074B1B78002B02D10022044B9A72034BDB7A052B02D10022014BD1
:4015C000DA7270472C07002010B5FA20C00003F049FD02F047FB62B6FFF778F900F0E4FE05F03AF8294805F0CFF805F0EBF805F0D9F905F06FFA264805F012FA254805F016
:40160000A5FA254C2000FFF75DF820002830FFF759F820005030FFF755F820007830FFF751F81E4C00212000FFF72EFA20000C300021FFF729FA200018300021FFF75CFA52
:40164000200024300021FFF71FFA200030300021FFF71AFA20003C300021FFF715FA200048300021FFF748FA200054300021FFF70BFA02F037F902F069FC09492000FFF7D7
:4016800029FAFFF731F9002010BDC0460D150000ED140000FD14000098000020AC8600003406002070B5104D280004F0D7FF0F4804F0D4FF0E4B187C04F0DEFF0D4804F0E3
:4016C000CDFF0D4CE07C04F0D7FF0C4804F0C6FFA08A000A04F0D0FF207D04F0CDFF280004F0BCFF70BDC0462889000054890000980E0020648900001C0E002078890000A8
:4017000070B5124D00241DE0EB88002B05D0104A61008B5A01338B5203E0630000210C4A995263000A4A9A5A9623DB009A4206D9200004F079F963000021054A99520A35BB
:401740000134E4B2052CDFD970BDC046BA0F0020C007002010B5064B9B89002B07D0013B9BB2034A9381002B01D104F071F910BDD80D002010B5074B1B7C012B09D1012288
:40178000044B1A70044B5A7A9A7204490448FFF7A1F910BD040E00201C0E0020CC050020AC86000010B5074B1B7C012B09D10322044B1A70044B5A7A9A7204490448FFF71C
:4017C00089F910BD040E00201C0E0020CC050020AC86000010B5E1221201464B5A61464B1B7ADB0700D584E0444BDB7A002B6BD1424B00229A809A773E4B1B78002B06D150
:40180000FFF7B8FF3E493F48FFF764F971E03B4A927C012A03D0394A127C002A04D001F0EDFE02F089FB64E0012B0DD101F020FF0222304B1A70FA229200304B1A80304994
:401840003048FFF747F954E0022B0BD10122294B1A70FA229200294B1A8029492948FFF739F946E0032B0FD101F002FF0422214B1A70224B00225A80FA2292001A80204939
:401880002048FFF727F934E0042B0DD10122194B1A701A4B00225A80FA2292001A8018491848FFF717F924E0053BDBB2032B20D80122104B1A70FA229200104B1A8010490D
:4018C0001048FFF707F914E00C4B1B7C002B04D001F094FE02F030FB0BE0084B9B7B002B07D109490748FFF7F5F8044B14229A73DA7310BD040E0020D80E00201C0E002010
:40190000CC050020AC8600003C05002010B5E12212014F4B5A614F4B1B7ADB0700D596E04D4BDB7A002B7DD14B4B00229A809A77474B1B78002B06D1FFF71CFF47494848F6
:40194000FFF7C8F883E0444A927C012A03D0424A127C002A04D001F051FE02F0EDFA76E0012B0FD101F084FE3B4B01229A770521374A1170FA2292001A8038493848FFF78D
:40198000A9F864E0052B0BD10122314B1A70FA229200314B1A8031493148FFF79BF856E0062B0BD101222A4B1A70FA2292002A4B1A802A492A48FFF78DF848E0032B0FD115
:4019C00001F056FE0422224B1A70234B00225A80FA2292001A8021492148FFF77BF836E0042B0DD101221A4B1A701B4B00225A80FA2292001A8019491948FFF76BF826E096
:401A0000022B03D0072B01D0082B20D10122104B1A70FA229200104B1A8010491048FFF759F814E00C4B1B7C002B04D001F0E6FD02F082FA0BE0084B9B7B002B07D1094910
:401A40000748FFF747F8044B14229A73DA7310BD040E0020D80E00201C0E0020CC050020AC8600003C05002010B5E1221201534B5A61534B1B7ADB0700D59DE0514BDB7AA4
:401A8000002B00D083E04F4B00229A809A774B4B1B78002B06D1FFF76DFE4B494B48FFF719F889E0474A927C012A03D0454A127C002A04D001F0A2FD02F03EFA7CE0012BC4
:401AC00015D101F0C7FC012803D107223B4B1A7004E001F0CDFD0322384B1A70FA229200384B1A8038493948FEF7F4FF64E0032B0FD101F0BDFD0422304B1A70314B0022CA
:401B00005A80FA2292001A802F493048FEF7E2FF52E0042B0DD10722284B1A70294B00225A80FA2292001A8027492848FEF7D2FF42E0072B0BD10822204B1A70FA229200FD
:401B4000204B1A8020492148FEF7C4FF34E0082B0BD10122194B1A70FA229200194B1A8019491A48FEF7B6FF26E05A1FD2B2012A01D9022B20D10122104B1A70FA229200AC
:401B8000104B1A8010491148FEF7A4FF14E00D4B1B7C002B04D001F031FD02F0CDF90BE0084B9B7B002B07D109490848FEF792FF044B14229A73DA7310BDC046040E0020CA
:401BC000D80E00201C0E0020CC050020AC8600003C05002010B5E1221201214B5A61214B1B7ADB073BD4204B00229A77DB7A012B03D11D4A527C002A09D1002B03D11A4A8E
:401C0000927C012A03D0184A127C002A04D001F0F5FC02F091F922E0144A51899622520091421CD9104A127B002A18D101210E4A1173012B08D10122094B1A700A4B0022CB
:401C40001A80DA725A7306E00122054B1A70064B00211980DA7206490648FEF73BFF10BD040E0020D80E00201C0E0020D80D0020CC050020AC86000010B5E1221201174BF7
:401C80005A61174B1B7ADB0727D4164BDB7A002B23D10022134B9A77104B1B78002B02D1FFF768FD19E0013BDBB2012B15D801F025FC012811D10C4B1A8896235B009A4207
:401CC0000BD9084B00221A765A769A760132034B1A7006490648FEF7FDFE10BD040E0020D80E00201C0E0020D80D0020CC050020AC86000010B5E1221201194B5A61194BAE
:401D00001B7ADB072AD4184BDB7A002B26D1144B1B78002B02D1FFF72DFD1FE0012B03D0052B01D0062B19D101F094FB012815D10E4B5A8896235B009A420FD90A4B002211
:401D4000DA761A775A775A84243200219954233A034B1A7006490748FEF7BCFE10BDC046040E0020D80E00201C0E0020D80D0020CC050020AC86000010B5E1221201254B25
:401D80005A61254B1B7ADB0742D4244B9B88C82B03D8224BDB88C82B3AD91E4B1B78022B0CD11F4B00221A765A769A760132194B1A701C491C48FEF78DFE29E0052B10D1AF
:401DC000174B0022DA761A775A775A84243200219954233A0F4B1A7012491348FEF77AFE16E0062B0DD10E4B00225A84243200219954233A074B1A700A490B48FEF76AFE09
:401E000006E0074BDB7A012B02D10122044B5A7310BDC046040E0020D80E0020D80D00201C0E0020CC050020AC860000204B1B7DDA0704D51E490A8801320A8002E00021E4
:401E40001B4A11809A0704D519494A8801324A8002E00021164A51805A0704D514498A8801328A8002E00021114A91801A0704D50F49CA880132CA8002E000210C4AD1806D
:401E8000DA0604D50A490A8901320A8102E00021074A11819B0604D5054A53890133538104E00022024B5A81024B1A737047C046D80D00201C0E002070B504000D001E00CA
:401EC000012811D132290FD91100280005F00EF8002901D1632D0BD93100280005F006F8002901D1632D05D8002C05D1012004E0012002E0012000E0002070BD10B5E1221D
:401F000012018C4B5A618C4B1B7ADB0700D510E18A4BDB7A002B00D0F2E0864B1B78002B06D1FFF73FFC86498648FEF7D3FD00E1824A927C012A03D0804A127C002A04D0E9
:401F400001F05CFB01F0F8FFF3E0022B2BD17B4BFA2292001A801B8B002B0CD1774B9B7E002B08D1784B1B7D5B0704D477497548FEF7B0FDDDE0744B187D4007C00F99889E
:401F800002230A22FFF798FF012802D1002001F0F7F86D4B1B7D5B0700D5CAE068496948FEF798FDC5E0DA1ED2B2012A1ED8664B187D4007C00F99880A230A22FFF77CFFA1
:401FC000012802D1002001F091F85C4B962252005A80FA2292001A805B4B1B7D5B0700D5A7E057495748FEF775FDA2E0052B2AD1524BFA2292001A80DB7E002B0CD14F4B49
:402000009B8B002B08D1504B1B7D5B0704D44F494C48FEF75FFD8CE04B4B187D4007C00F99880A230A22FFF747FF012802D1002001F0D4F8444B1B7D5B077AD44049414867
:40204000FEF748FD75E0062B26D13C4BFA2292001A805B8C002B08D13B4B1B7D5B0704D43A493848FEF736FD63E0374B187D4007C00F998802230A22FFF71EFF012802D17B
:40208000002001F081F9304B1B7D5B0751D42C492C48FEF71FFD4CE0082B17D12A4B1B7D5B0746D4254BFA2292001A801B7A012B04D826492348FEF70DFD3AE0002001F0D8
:4020C00099F91F491F48FEF705FD32E0072B30D11D4B1B7D5B072CD4184BFA2292001A805B7A012B04D819491648FEF7F3FC20E0002001F097F912491248FEF7EBFC18E08B
:402100000E4B1B7C002B04D001F078FA01F014FF0FE00D4B1B7D5B070BD4084B9B7B002B07D10A490748FEF7D5FC044B14229A73DA7310BD040E0020D80E00201C0E002027
:40214000CC050020AC860000D80D00203C05002010B5E12212018B4B5A618B4B1B7ADB0700D50EE1894BDB7A002B00D0F0E0854B1B78002B06D1FFF715FB85498548FEF76A
:40218000A9FCFEE0814A927C012A03D07F4A127C002A04D001F032FA01F0CEFEF1E0022B27D17A4BFA2292001A801A8B7A4B9A4208D17A4B1B7D1B0704D479497548FEF7A9
:4021C00089FCDEE0754B187D0007C00FD98802230A22FFF771FE012801D100F0D1FF6F4B1B7D1B0700D5CCE069496A48FEF772FCC7E0DA1ED2B2012A1DD8684B187D000751
:40220000C00FD9880A230A22FFF756FE012801D100F06CFF5D4B962252005A80FA2292001A805E4B1B7D1B0700D5AAE058495948FEF750FCA5E0052B2AD1544BFA2292005F
:402240001A80DB7E052B0CD1504B1B7F3B2B08D1524B1B7D1B0704D451494E48FEF73AFC8FE04E4B187D0007C00FD9880A230A22FFF722FE012801D100F0B0FF474B1B7D59
:402280001B0700D57DE042494248FEF723FC78E0062B28D13D4AFA239B001380118C538CCB18404A934208DD3C4B1B7D1B0704D43B493848FEF70EFC63E0384B187D00072C
:4022C000C00FD98802230A22FFF7F6FD012801D101F05AF8314B1B7D1B0752D42C492D48FEF7F8FB4DE0082B17D12C4B1B7D1B0747D4264BFA2292001A801B7A022B04D91C
:4023000027492448FEF7E6FB3BE0012001F072F81F492048FEF7DEFB33E0072B31D1FA2292001A4B1A801D4B1B7D1B0729D4174B5B7A022B04D91A491648FEF7CBFB20E0E6
:40234000012001F06FF812491248FEF7C3FB18E00E4B1B7C002B04D001F050F901F0ECFD0FE00E4B1B7D1B070BD4084B9B7B002B07D10B490748FEF7ADFB044B14229A7362
:40238000DA7310BD040E0020D80E00201C0E0020CC050020AC860000173B0000D80D00203C0500209F05000010B51F4B00221A70962199803239D9801981D960E1210901B4
:4023C00059611A74194B0C202A21585401315A541A765A769A76DA761A775A775A840739002058541A85DA840431114A91815B7A013BDBB2022B03D90C4B03225A729A7288
:402400000A4B1B7A013BDBB2022B02D90222074B1A72064BDB7A012B02D90022034BDA7201F0F2FF10BDC046040E00201C0E0020D80D002070B5C5B20A21280004F0D0FC91
:40244000C4B20A21280004F051FD074B19700A21200004F0C5FC054B18700A21200004F045FD034B197070BDFE0D0020000E0020FF0D0020054A064B1B78D15C054B59701B
:4024800005490978525C9A707047C046B0020020FF0D0020F00D0020FE0D0020054A064B1B78D15C054BD97005490978525C1A717047C046B0020020FF0D0020F00D0020B9
:4024C000FE0D00200E494A7B01231343DBB20222934302329343043293430832934320221343DBB2402293433F3213404B7300234B718B714B708B70CB700B717047C0468A
:40250000F00D0020114B597B012001220A43D2B202210A43D2B204210A43D2B208210A43D2B210210A43D2B220210A43D2B240210A43D2B2802149420A435A7358719871F7
:40254000FF225A709A70DA701A717047F00D002010B5002003F06CF8002003F07DF8002003F08EF8002003F09FF8002003F0B0F8012002F0BDFF012002F0CEFF012002F039
:40258000DFFF012002F0F0FF012003F001F8012003F012F8012003F023F8012003F034F8664B9A7A032A0FD0654BDB7A012B01D1022A09D0022B01D1012A05D0032B00D0CB
:4025C0009BE0002A00D098E05D4B1B78002B03D0013B5B4A137002E00422594B1A70002003F026F8002003F037F8002003F048F8002003F059F8002003F06AF8012002F069
:4026000077FF012002F088FF012002F099FF012002F0AAFF012002F0BBFF012002F0CCFF012002F0DDFF012002F0EEFF454B9B88002B01D0FFF766FF414B1B78042B30D829
:402640009B00414AD3589F46012002F0F1FF3C4B5A781A7328E0012002F0FEFF384B9A781A7321E0012003F00BF835494B79DA01CB787F20034013430B7315E0012003F0CA
:4026800013F82F498B79DA010B797F20034013430B7309E0012003F01BF8294B5A7B1A7302E00022264B1A70254C207BC007C00FC0B202F01DFF207B8007C00F02F02CFF69
:4026C000207B4007C00F02F03BFF207B0007C00F02F04AFF207BC006C00F02F059FF207B8006C00F02F068FF207B4006C00F02F077FF207BC00902F087FF114AD37A0133BE
:40270000DBB2D3720D4A927A022A04D1012B02D900210B4BD972012A06D1094BDB7A022B02D90021064BD972002A05D1044BDB7A032B01D9024BDA7210BDC0461C0E0020C8
:40274000F00D0020040E00208889000010B5064B1A78064B5A70AF229A700D20FFF76AFEFFF79CFE10BDC046B0020020F00D002010B500F07FFE012804D1184A537B0821F5
:402780008B43537300F066FE012804D1134A537B04218B43537300F0B1FE012804D10F4A537B02218B4353730D4C2A23E05CFFF741FEFFF75FFE2B23E05CFFF73BFEFFF7BB
:4027C0006DFEA388002B04D1044B00225A719A7103E0024B01225A719A7110BDF00D00201C0E002010B500F045FE012804D11E4A537B08218B43537300F02CFE012804D19E
:40280000194A537B04218B435373174A537B02218B435373154B187E00280BD11C00587EFFF708FEFFF726FEA07EFFF703FEFFF735FE0AE080B2FFF7FDFDFFF71BFE0B4B17
:40284000587EFFF7F7FDFFF729FE084B9B88002B04D1054B00225A719A7103E0024B01225A719A7110BDC046F00D00201C0E002010B500F0FFFD012804D11E4A537B08214C
:402880008B43537300F03AFE012804D1194A537B02218B435373174A537B04218B435373154BD87E00280BD11C00187FFFF7C2FDFFF7E0FD607FFFF7BDFDFFF7EFFD0AE03E
:4028C00080B2FFF7B7FDFFF7D5FD0B4B187FFFF7B1FDFFF7E3FD084B9B88002B04D1054B00225A719A7103E0024B01225A719A7110BDC046F00D00201C0E002010B500F0F7
:40290000B9FD012804D1164A537B08218B43537300F0A0FD012804D1114A537B04218B435373104B9B88002B05D10D4A537B02218B43537304E00A4A517B02230B435373F3
:40294000084C207EFFF776FDFFF794FD607EFFF771FDFFF7A3FD024B00225A719A7110BDF00D00201C0E002010B500F0C7FD012804D13D4A537B02218B4353733B4B9B88F8
:40298000002B05D138494A7B042082434A7304E03549487B042202434A73354A1278032A20D1324A5288002A07D02A232F4AD05CFFF740FDFFF75EFD08E0002B06D12A33A2
:4029C0002A4AD05CFFF736FDFFF754FD2B23274AD05CFFF72FFDFFF761FD234B00225A719A713FE0042A21D1204C2A23E05CFFF721FDFFF73FFD6388002B07D02B231B4AE6
:402A0000D05CFFF717FDFFF749FD0AE0174B9B88002B06D12B33154AD05CFFF70BFDFFF73DFD114B00225A719A711BE0002B0CD10E4C2A33E05CFFF7FDFCFFF71BFD2B2307
:402A4000E05CFFF7F7FCFFF729FD084B9B88002B04D1054B00225A719A7103E0024B01225A719A7110BDC046F00D00201C0E0020040E002010B500F0FDFC012804D1164AB6
:402A8000537B08218B43537300F038FD012804D1114A537B02218B435373104B9B88002B05D10D4A537B04218B43537304E00A4A517B04230B435373084CE07EFFF7BAFC8E
:402AC000FFF7D8FC207FFFF7B5FCFFF7E7FC024B00225A719A7110BDF00D00201C0E002010B500F0B7FC012804D1164A537B04218B43537300F002FD012804D1114A537B11
:402B000002218B435373104B9B88002B05D10D4A537B08218B43537304E00A4A517B08230B435373084C208DFFF784FCFFF7A2FCE08CFFF77FFCFFF7B1FC024B00225A7175
:402B40009A7110BDF00D00201C0E002010B500F091FC012804D1134A537B08218B43537300F078FC012804D10E4A537B04218B43537300F0C3FC012804D10A4A537B0221BB
:402B80008B435373074B5A7B10218A435A7383225A703C329A70044B187AFFF74BFCFFF77DFC10BDF00D00201C0E002010B500F061FC012804D1134A537B08218B435373EF
:402BC00000F048FC012804D10E4A537B04218B43537300F093FC012804D10A4A537B02218B435373074B5A7B40218A435A73A1225A701E329A70044B587AFFF71BFCFFF741
:402C00004DFC10BDF00D00201C0E0020144BDB7A012B24D1124B9B7B002B18D00E2B03D85A1FD2B2042A06D80E494A7B8020404202434A7304E00B494A7B7F2002404A73C4
:402C4000074A013B9373D37B013BD37307E0054A537B7F210B4053730022014BDA7370471C0E0020F00D002010B5134B5B7C002B0ED0114B9B88002B05D1104A537B042193
:402C80008B43537304E00D4A517B04230B43537300F034FC012804D1084A537B02218B435373064BFF225A70793A9A702532DA700A3A1A7110BDC0461C0E0020F00D0020A6
:402CC000134B5B89322B22D97C2B08D8114BFF225A709A70DA70104AD2781A7112E0C72B08D80C4BFF225A709A70DA700A4A92781A7107E0074BFF225A709A70DA70064ADE
:402D000052781A71034A537B7F210B4053737047D80D0020F00D0020B002002010B5074B1B78DB0709D5064B86225A7029329A701320FFF77FFBFFF7B1FB10BDB00E002045
:402D4000F00D002010B5FFF7DDFB464B1B78002B22D1444B9B88002B02D0FFF7D3FB79E0404BDB88002B02D0FFF7ACFB72E03D4B1B89002B02D0FFF7E9FC6BE03A4B5B8903
:402D8000322B06D9394B1B7B002B02D1FFF798FF60E0FFF7E9FD5DE0334A5289322A06D9324A127B002A02D1FFF78AFF52E0304A1278D20702D5FFF7B1FF4BE0012B2AD1E3
:402DC0002A4B9B7C012B02D1FFF74EFF0FE000F0A5FB002802D1FFF705FD08E000F09EFB012802D1FFF744FD01E0FFF7C1FC1F4B1B7C002B2ED01D4B9B88002B05D11D4A3E
:402E0000537B02218B43537324E01A4A517B02230B4353731EE0022B02D1FFF76FFD19E0DA1ED2B2012A02D8FFF79EFD12E0052B02D1FFF71FFE0DE0062B02D1FFF750FEF8
:402E400008E0072B02D1FFF7B1FE03E0082B01D1FFF77CFE034B9B88002B01D1FFF7D6FE10BDC046040E0020D80D00201C0E0020B00E0020F00D002010B500F0E1F800F063
:402E800019FE334B1B78012B0BD8324B9B7C012B07D000F0DFFA002803D100F02FFB002803D0E12212012A4B5A61294B9B88002B02D0013B264A9380254B9B88002B06D13C
:402EC000234BDB88002B02D0013B214AD380204BDB88002B06D11E4B1B89002B02D0013B1B4A13811A4B5B68002B0CD1184B1B89002B08D1164BDB68002B04D0144A013B83
:402F0000D36001231374134B1B88002B0DD0013B9BB2104A1380002B07D1130000225A8001210B4A117000229A770A4B5B88002B02D0013B074A5380FEF778FF00F076FB95
:402F4000034B5B69002B01D102F082F910BDC046040E00201C0E002010B5074B1B7C012B01D100F069FF00F08BFB034B5B69002B01D102F06DF910BD040E002010B500F0F1
:402F80009DFC01F01FF900F0C1FF114B5B7B012B01D1FEF787FB0F4B5B79092B02D801330C4A537100F062FB00F0EAFF0A4B1B78012B06D8084B5B69002B02D0013B064AD6
:402FC0005361054B5B69002B01D102F041F910BD1C0E0020D80E0020040E0020074BDB79322B01D03C2B08D1054B1B7A5B0704D5044B01225A7100229A727047700E00209D
:403000008C0E0020CC0700200A4BDB79322B01D03C2B0ED1084B1B7A5B070AD4074B00229A725A721A72DA725A711A705A705A801A717047700E00208C0E0020CC070020F4
:4030400010B5022003F0C8FA002003F0D9FA80B2024CA08200F0E6FFE07410BD1C0E0020124B1B78052B1FD011492C228B5C0133DBB28B543B2B17D90A0000212C23D154B9
:403080002B31535C0133DBB253543B2B0CD900212B23D1542A31535C0133DBB25354172B02D900212A23D1547047C046040E00201C0E00200B4B1B78053BDBB2012B10D998
:4030C000094924228B5C0133DBB28B543B2B08D90B00002199545B8C002B02D0013B024A53847047040E00201C0E002001281DD1214B1B78032B0CD120492A228B5C0133EA
:40310000DBB28B54172B30D900212A231B4AD1542BE01A492B228B5C0133DBB28B543B2B23D900212B23154AD1541EE0124B1B78032B0DD12733114AD35C002B03D1172134
:403140002A33D15411E0013B2A220C498B540CE02B230A4AD35C002B03D13B212B33D15403E0013B2B2205498B54044B002224215A5408315A547047040E00201C0E00206E
:40318000012814D1144A537E0133DBB253763B2B1ED900235376137E0133DBB21376172B16D9130017221A7624325A7610E00A4B5B7E002B03D0013B074A537608E0064B46
:4031C0001B7E002B04D0044A3B215176013B13760022014B9A7670471C0E002070B501286AD14E4B9B7F012B39D14C4B00229A771C7F002C0AD1DB7E002B07D1474B5B7FDC
:40320000002B03D11E32454B1A777EE0434BDD7E002D04D10E2C02D801341C770EE00521200003F063FEC9B2002903D105343B4B1C7703E0641A0534384B1C77374B1B7FDB
:403240003B2B62D9354B00221A770135EDB2DD76052D5AD90532DA7636321A7755E02F4BDC7E002C06D11B7F0E2B03D801332B4A137710E0294B1D7F0521280003F036FE0B
:40328000C9B2002903D10535244B1D7703E06D1A0535224B1D77214B1B7F3B2B35D91F4B00221A770134E4B2DC76052C2DD90532DA7636321A7728E0184B1C7F002C19D02E
:4032C00000229A77DB7E002B05D10F2C03D8013C124B1C7719E00521200003F007FEC9B2002903D1053C0D4B1C770EE0641A0B4B1C770AE0094BDB7E002B06D0074A0021C4
:40330000917737311177013BD376044B00225A775A8424320021995470BDC0461C0E0020184B5B7F002B08D1164B2B229A5C588C197F82185218DA8408E012492B23CB5C94
:40334000488C0A7FC3189B180133CB840D4A2A23D15CD37ECB181385172B0ED9183B13850BE0084A3C3BD384138D01339BB21385182B02D10022034B1A85024BDB8C3B2B2B
:40338000EFD870471C0E002010B5184B1B7F002B03D1164AD27E002A07D01449CA7E3C246243D318013B0B8404E03C214A43D3180E4A138401280AD10C4A138C528C9B1841
:4033C0000B498B420ADC0132084B5A8406E0074B5B8C002B02D0013B044A538400212423024AD154FFF79CFF10BDC0461C0E00209F05000010B5012807D1094B1B7A022BDE
:403400000AD80133064A137206E0054B1B7A012B02D9013B024A137200F098FD10BDC0461C0E0020012807D1094B5B7A022B0AD80133074A537206E0054B5B7A012B02D98B
:40344000013B034A5372024B5A7A9A727047C0461C0E0020064B9B8B002B05D1044BDB7E002B03D0012002E0012000E0002070471C0E0020034B5B8C002B01D0012000E055
:40348000002070471C0E002010B51A4B1B78053BDBB2012B2DD9FFF7DDFF012829D1FFF7E9FF002825D1144B5B7F002B03D0013B114A537712E0104B3B225A771B7F002B66
:4034C00003D0013B0C4A137708E00B4BDB7E002B04D0094A013BD3763B231377FFF7BAFF002806D1044B77225A74763A9A7400221A7410BD040E00201C0E0020064B9B7E02
:40350000002B05D1044B1B8B002B03D0012002E0012000E0002070471C0E002070B5FFF7A9FF012805D1FFF7E9FF01282BD100202EE0FFF7E3FF040001281DD1FFF78AFF0D
:40354000012819D113490A7EE1231B015A4315004A7E1401A41AA200AA188C7EA218CC7E5C430D7F2B015D1BAB00E318497FCB189A420DDA00200BE0012C06D0FFF76AFF25
:40358000012804D104E0022002E0002000E0022070BDC0461C0E002010B5164B1B78022B27D0FFF7ABFF012823D1134B9B7E002B03D0013B104A937612E00F4B3B229A761F
:4035C0005B7E002B03D0013B0B4A537608E00A4B1B7E002B04D0084A013B13763B235376FFF78CFF002804D1034B77221A7400225A7410BD040E00201C0E00200A4B1B7C6F
:40360000002B02D00022084B1A74074B9B7C012B09D1054B00225A74DB7A002B03D1024B9A745A7A9A7270471C0E00200D4B1B7A5B070DD40C4B1B78002B03D0013B0A4AA3
:4036400013700DE0074A137A20218B43137207E03222054B1A70034A117A20230B4313727047C046640E0020BA0200207047C046024B0022DA809A807047C0461C0E002093
:4036800010B5164B5B7A012B26D9144B9B7C012B0BD103F04FF8002807D1104B9B7A002B03D000220D4B9A7216E00D4B1B78012B07D80B4B5B69002B03D10122074B9A72B2
:4036C0000AE0074B5B69002B06D0044B9B7A002B02D0024B5A7A9A7210BDC0461C0E0020040E002010B5254B1B79012B12D0002B02D0022B2FD03CE0204B5B78012B3BD15A
:403700001E4B5A8801325A8001221A71012003F035FA31E019494A88531C9BB24B80142A03D1002003F02AFA26E0282B24D1134A0023538013780133DBB21370032B06D1B6
:40374000002003F01BFA02220C4B1A7114E0012003F014FA10E00A4B9B7C002B0CD1002003F00CFA054B00221A711A705A805A7002E00022014B1A7110BDC046CC070020BC
:403780001C0E002010B5274B9B7A012B10D0002B04D0022B1ED0032B35D03AE0012003F0EDF9204B1A7A01321A7201229A7236E01C4A137A591C1172142B30D1002003F0C5
:4037C000DDF9184B02229A7200221A725A7A01325A7224E0134A537A591C5172142B1ED1D37A591CD172032B06D1002003F0C6F903220C4B9A7202E000220A4B9A72002260
:40380000084B5A720BE0074B00225A721A72DA7205E0044B00229A725A721A72DA72014B987A10BDCC07002010B5154B5B79012B16D0002B02D0022B0DD018E0FFF7A2FFA1
:4038400003281BD10E4B02225A7100221A705A705A801A7112E0FFF7C1FBFFF743FF0DE0FFF790FF032809D1FFF7CEFB06E0044B00225A711A705A705A801A7110BDC0464E
:40388000CC07002010B50B4B1B7ADB0710D50A4B5B7B012B0CD1084AD389591CD181322B06D1002003F06AF9034B00225A73DA8110BDC046D80E0020CC070020074A13780B
:4038C0000133DBB21370042B06D9054B1B78002B02D10122024B1A707047C046DE070020880E002010B5024802F00AFF10BDC046153A000010B5344B00221A705A706432A7
:403900009A70197A01220A431A72530702D52F4B5A7A9A722C4A137A04218B4313722C4A1379013313712B4A53780133DBB25370312B03D9264AD279322A05D03B2B10D9F7
:40394000234BDB793C2B0CD10022224B5A70FFF787FBFFF721FEFFF797FDFFF7ABFBFFF7DFFC1A4AD3880133D3801B4B1B78012B0CD1184B9B78002B0BD1164A0133937008
:40398000124B002199805278DA8002E00022114B9A700E4BDB88182B03D90D4AD279322A05D01D2B0FD90A4BDB793C2B0BD1074B0022DA809B88012B02D1044B9A8002E0DD
:4039C0000122024B9A8010BD8C0E00201C0E0020700E0020DE070020040E0020054B00221A705A7064329A701A7A04218A431A727047C046640E0020054B00221A705A700A
:403A000064329A701A7A04218A431A727047C046580E002010B5244B1A7A02218A431A722248027A8A4302722148027A8A4302721B780E2B08D91C4B5B78052B04D91A4AA8
:403A4000117A02230B431372184B1B780E2B08D9164B5B78052B04D9144A117A02230B431372134B1B780E2B08D9114B5B78052B04D90F4A117A02230B4313720A4B1B7A84
:403A80009B0701D5FFF736FF084B1B7A9B0701D5FFF7A4FF064B1B7A9B0701D5FFF7ACFF02F002FE10BDC0468C0E0020640E0020580E002010B5124BDB79322B01D03C2BC9
:403AC0001DD1104B1B7A5B0719D50F4B1B78012B15D10E4BDB78002B11D10D4BDA7A197A587A00F0E1F80B4B1B7ADB0704D50A4B5978187800F0E6F80122044BDA7010BD53
:403B0000700E00208C0E0020880E0020DE0700201C0E0020D80E0020E80E0020024A1378013313707047C046640E0020024A1378013313707047C046580E002010B5424A0D
:403B400013780133137002F0A7FD404C207102F0A3FD2379C018207102F09EFD2379C018C0B22071012803D9374A537801335370FFF7D4FFFFF7DAFF334B9B78002B03D046
:403B8000013B314A93700EE02F4B1B7A5B0702D400222F4B9A722C4A117A04230B43DBB201218B4313722B4B9B78002B03D0013B284A937004E0274A117A04230B431372E4
:403BC000254B9B78002B03D0013B234A937004E0214A117A04230B431372204A1368013313601F4A93422DD91C4B00221A601B79372B12D9194A0023537193790133DBB2F9
:403C00009371092B1BD9130000229A713C32DA71197A01220A431A7211E0104A0023937153790133DBB25371092B08D9130000225A713232DA71197A01220A431A72002298
:403C4000064B1A7110BDC0468C0E0020DE0700201C0E0020640E0020580E0020700E0020E7030000094B1A78094B5A729A72094A12781A72084A1278DA72084B1A78084B11
:403C80001A70084A12785A707047C04681FD00001C0E002082FD000083FD000084FD0000E80E002085FD000010B5054B58709970DA701900FC20FF3001F092F810BDC04655
:403CC000BC02002010B5044B187159711900FC20FF3001F085F810BDBC020020094B9B8AC8225200934204D9903AFF3A064B5A7406E07622FF32934202D80022024B5A74DE
:403D00007047C0461C0E0020980E0020064A5369013353618000054A8258934203D3024B00229A735A617047980E00203C030020084A536901335361074A934208D9054B0E
:403D4000DB7B002B04D1034B00225A610132DA737047C046980E00205F09000010B5314B1B7ADB075DD4304B1B78DB0706D5002002F0D4FC01222D4B1A7452E020232C4AAD
:403D8000D35CDA0707D42A4A127F002A13D0294A127A52070FD41B0706D5002002F0BEFC0322224B1A743CE0002002F0B7FC04221E4B1A7435E01D4B1B7A012B06D10020AF
:403DC00002F0ACFC0522194B1A742AE0174B9B7B002B09D0002002F0A1FC144CA07BFFF795FF062323741CE0002B10D10F4B5B7C012B0CD10D4BDB7B002B08D1002002F010
:403E00008DFCFFF795FF0722084B1A7409E0002002F084FC054B0122DA7300225A6108321A7410BDD80E0020B00E0020980E0020B40E0020580E002010B5314B1B7A9B062F
:403E40000BD4304A012313721368013313603C2B51D900222B4BDA734DE02A4B00221A729B7B002B19D0274B1B68F02B05D9254B04329A7300225A613AE0782B05D9214BA9
:403E800003229A7300225A6132E03C2B30D91D4B02229A7300225A612AE01A4B1B68B4229200934203D90522164B9A7320E0F0225200934204D9DD3AFF3A124B9A7317E094
:403EC000B4225200934204D9663AFF3A0D4B9A730EE0F02B03D902220A4B9A7308E03C2B03D90122074B9A7302E00022054B9A730022044B1A60FFF7F1FEFFF72FFF10BD70
:403F0000640E0020980E00200120704710B5084B1B7ADB070AD4FFF7F7FF012803D10122044B1A7002E00022024B1A7010BDC046D80E0020BC07002010B502490248FCF71B
:403F4000C9FD10BD64050020AC86000010B50A4B1B7A032B04D14B210848FCF7BBFD0AE0022B04D13C210548FCF7B4FD03E032210248FCF7AFFD10BD1C0E0020B88600002C
:403F800010B5224B1B7C002B0BD0013B1F4A13741F4B1B78002B1AD11E491F48FCF79AFD15E01A4B5B7C002B0ED0013B174A5374174B1B78002B0AD118491748FCF78AFDC8
:403FC0000122174B5A7002E00022114B1A700F4B5B7C002B0AD00E4B1B78052B03D900220B4B1A7002E00133094A1370074B1B7C002B0AD0064B1B78012B03D90022044B21
:404000001A7002E00133024A137010BD1C0E0020E307002044040020AC86000094030020CC07002010B50300323B9BB22B4A934206D92B4A117801230B43137064204CE05E
:40404000274A137801218B43137055280DD804F063F9244A244B03F05BFB244A244B03F0D1FD04F023F900B230E05E23FF3398420DD804F051F91F4A1F4B03F049FB1F4A66
:404080001F4B03F0BFFD04F011F900B21EE0D6239B0098420DD804F03FF91A4A1A4B03F037FB1A4A1A4B03F007F804F0FFF800B20CE004F031F9174A174B03F029FB174A2F
:4040C000174B02F0F9FF04F0F1F800B2002800DA0020642800DD6420C0B210BD72060000B00E002066F7E461A1D6E03F8D976E1283D84440226C787AA52CC33F3BDF4F8D3D
:40410000978E23404D158C4AEA04B43FFC1873D712922B4005A3923A014DB43F780B24287E4C2640164B1B7A5B071CD4154B1B7F002B03D0013B134A137720E0124B1B786A
:40414000012B1CD10F4A2020115C0B43DBB210210B4313540D4B1B7A5B07DB0F93770022094B1A700BE00120074B1870054B20215A5C82435A543C221A7700225A777047E3
:40418000580E0020B40E002054030020640E0020094B1B7A5B0708D42023084AD35C9B0709D5074B1B78DB0705D4044920228B5C012083438B547047580E0020B40E002028
:4041C000540E002070B58E4C96239B0063801623237108336371A371E3712222227263720D3BA3722B33E3720E3A227363730632A273E3734F32FF326283643AFF3A2274AC
:404200006374A274E374FFF78DFFFFF7C1FF2023E35CDA0700D4E0E09A0772D4784A927F002A29D1774A127A920619D59B0617D47348417F0131C9B24177724B1B7A9B06FB
:404240002024DB0F5A01035DA34313430355012946D901002022D8B2022303438B543FE0684B1B7A9B0666482021DB0F5A01435C8B431343435433E06249097A2020014009
:4042800005D1022A03D002225D4B9A7728E0022A26D1002919D09B0617D45948417F0131C9B24177574B1B7A9B062024DB0F5A01035DA34313430355012911D90100202211
:4042C000D8B2022303438B540AE04E4B1B7A9B064B482021DB0F5A01435C8B4313434354474920200B5C0A8801320A8000228A828A750422934310221343DBB208229343FA
:404300000B5420233E4AD35C9B0778D52021505C042303435354138B01339BB213833C2B06D811002022885C082303438B540BE0334A2020115C0824A1431154528B934277
:4043400002D300222E4B1A8320232D4AD35C5B0726D4937D0133DBB29375127C934206D827492022885C102303438B540CE024492024085D1025A8430855497C5218934260
:4043800002DB00221E4B9A751D4A938A01339BB293825288934232D90022194B9A752EE0174A937D0133DBB29375927C934206D813492022885C102303438B541FE01049E2
:4043C0002024085D1025A8430855C97C5218934215DB00220A4B9A7511E0094A2021535C02208343023083430C30834308388343535400231380938200219175138370BD25
:40440000B40E0020640E00200C490A7A02231343DBB2012293430B72094BBB215970113199701131D970074BDA7000221A715A719A71D039D9711A727047C046D80E002021
:40444000340F0020E80E0020024BDA7C024B1A767047C0461C0E0020E80E0020044B1B7A5B07DB0FDB43252202498B547047C0468C0E0020E80E002010B52923064AD35C4A
:40448000012B04D105490648FCF724FB03E005490348FCF71FFB10BDE80E002034060020AC860000EC07002010B52A23034AD35C012B01D1FEF706F810BDC046E80E0020DA
:4044C00010B5FFF7F1FF2A23654AD35C002B00D0C4E0644B1B7CDA0714D5634B1B78002B03D1614B01221A705A705F4B5B78012B00D181E0FF225C4B1A7002212823584A97
:40450000D15479E09A0713D5574B1B78012B03D1554B02221A705A70534B5B78022B6BD0FF22514B1A70022128234D4AD15463E05A0713D54C4B1B78022B03D14A4B03226C
:404540001A705A70484B5B78032B55D0FF22464B1A7002212823424AD1544DE01A0713D5414B1B78032B03D13F4B04221A705A703D4B5B78042B3FD0FF223B4B1A7002218B
:404580002823374AD15437E0DA0613D5364B1B78042B03D1344B05221A705A70324B5B78052B29D0FF22304B1A70022128232C4AD15421E09B0617D52B4B1B78052B07D1D3
:4045C000294B06221A705A7001212823244AD154254B5B78062B0FD0FF22234B1A70022128231F4AD15407E01F4B1B78002B03D1002128331A4AD1541B4B5A78531EDBB245
:40460000FD2B07D8194B9A5C194B5A709A70DA701A7105E0164BFF225A709A70DA701A7113494A7B012001231343DBB202221343DBB204221343DBB208221343DBB2102264
:404640001343DBB220221343DBB240221343DBB28022524213434B734871887110BDC046E80E0020D80D0020E4070020B0020020F00D002010B52423074AD35C012B09D177
:4046800000242333D454012002F078FA034B01225A705C8010BDC046E80E0020D807002010B5294B5B79092B1AD9274A127A920716D502F077F802F057FA012002F08EF9E1
:4046C000002002F0F3F8022001F0B6FF022001F095FE022001F0F8FF01221B4B9A7131E0194A127A920723D5184A1278012A02D1174B9A7026E0FE2A16D1154A9278012A21
:4047000012D1092B10D8104A117A01230B43DBB202218B4313720F4B01221A70FD325A7000220B4B9A700DE00022094B9A7009E0FFF78AFEFFF792FEFFF7C2FEFFF79CFEFE
:40474000FFF798FF10BDC046D80E0020340F0020E4070020E80E002010B5164B1B785A0626D49B0714D4134A117802230B4313700022114B1A70FF32104B1A7008E0FCF7DD
:40478000FFFE0F4B19680C4A13785C1C1470C8540C4B1B78002BF2D1074B1B78042B07D9044A117840230B43DBB202218B43137010BDC0463C0F0020150F0020140F00200E
:4047C000580300203607002010B5274B1B78DA0608D5254A10218B431370244B187802F0EFF93FE01B071BD5214B1B78042B10D8591C1F4A11709B001E4A9B5818781E4CFA
:40480000207002F0DDF9194A137821785B1A137006E0154A137808218B4307398B431370114B1B787F2293431CD0114B1B783D2B11D8591C0E4A11709B000E4AD3185B69C7
:4048400018780D4C207002F0BBF9084A137821785B1A137006E0044A13787F210B407E398B43137010BDC0463C0F0020410F0020150F0020048A0000E70700200D4B1B7880
:40488000002B03D0013B0B4A137011E00A4A137802218B433E318B4330398B4308398B4377310B407E398B4313700022034B1A707047C046140F00203C0F0020150F0020FE
:4048C00010B57E4B1B78012B01D1FFF745FFFFF77BFF7B4B1B785B0600D4EEE0784A137840218B431370774B01225A7000229A7008E0754A1168734AC85C517841185170D5
:40490000013393706F4B9B78042BF2D96D4B0022DA705B78002B02D101326A4BDA70694BDB78012B14D1664B1B785B070BD4664B1B681B785BB2002B05DA614A137801217F
:404940008B43137004E05E4A117801230B4313705B4B1B78DB0700D496E05B4B19684B788A781B029B189BB20A78092A00D98BE09200564882589746052B07D8544AD318F6
:40498000187B504B187102F01BF97DE04C4A137801218B43137077E001224E4B1A70484A117808230B4313704B4B1878454B1871C2434A4B1A7002F003F965E0042B08D8F0
:4049C0009B00474A9B5818783E4B187102F0F8F85AE03B4A137801218B43137054E0042B05D89B003E4A9B58CA781A7004E0344A137801218B431370AA22324B1A71AA2037
:404A000002F0DEF840E0374A127AD2073CD53D2B09D89B00324AD3185B691878294B187102F0CEF830E0264A137801218B4313702AE02C4A127AD20726D53D2B06D89B0004
:404A4000274AD3185B69CA781A7004E01C4A137801218B431370AA221A4B1A71AA2002F0AFF811E001221B4B1A70154A1378802149420B4313701C4B1878124B1871C24316
:404A8000164B1A7002F09CF80D4B1B78DB0714D50B4A137801218B4301318B43137077229343882B09D0064A117810230B431370044B1B79DB43094A137010BD36070020A3
:404AC0003C0F0020E707002058030020DC890000048B0000150F0020340F0020410F0020048A0000D80E0020E80E00201022084B1A600D3A074B1A6080221206064B1A6076
:404B00008022064B1A60603A054B1A607047C046C0020C403000304000003A4000033A40000E3F4010B503F063FC03680C2B00D1FEE7FEE770B50F4E0F4D13E029686B682C
:404B4000AC68002202E001C901C30432A242FAD1E868002202E0002102C304328242FAD11035013E002EE9D103F048FCFCF72CFDFEE7C046010000003C8D000010B500234F
:404B80000AE0032B03D89A000849505800E008489900084A88500133232BF2D9FBF7BAFA80229205044B1A6010BDC04600000000254B00000000002008ED00E0000000004F
:404BC000FEB5494652465B460EB4074637498A46384A12683848022102F002F9030035480068C018344902F0FBF806001D3EB34601F0DBFF81465846022102F0F1F83F382E
:404C000001F0CAFF53461B68294A1A4205D02B490A68012313430B6028E0294A0023136000265846153801F0B7FF53461B682049194207D011680123B340194311605846B4
:404C4000133801E058460B38013608239B1B01D00C38E8E701F0A0FF53461B68144A1A4204D116490A68022313430B6013490A68042313430B60484601F09BFFC046C0465E
:404C8000C0460EBC894692469B46FEBDC046C046C046C046C046C046C046C046C046C04602000000030000000003044004030440040000005C06002080250000D40D0020E2
:404CC000D00D002082B0134B0093134B0193134B6A461A601249134A1160C0461B681B0F1B07F0221206934204D10C4B1B68FF2018400DE0094B1B681B0F1B07A02212060D
:404D0000934204D0054B1B68FF20184000E0002002B07047B6E90000FC070020080010401600008004001040104B114A1A601149114A1160C0461B681B0F1B07F0221206BE
:404D4000934204D1094B1B68FF2018400DE0074B1B681B0F1B07A0221206934204D0034B1B68FF20184000E00020704708001040B6E80000150000800400104082B0134B3C
:404D80000093134B0193134B6A461A601249134A1160C0461B681B0F1B07F0221206934204D10C4B1B68FF2018400DE0094B1B681B0F1B07A0221206934204D0054B1B685D
:404DC000FF20184000E0002002B07047B6EA0000FC07002008001040170000800400104030B5A5B004000023239322933D4B984272D8002970D0802202A803F025FB3A4B08
:404E000000937F230193394B6A461A603849394A1160C0461B681B0F1B07F0221206934204D1324B1B68FF2213400DE02F4B1B681B0F1B07A0221206934204D02B4B1B68B7
:404E4000FF22134000E000232393239B002B45D101F0ABFE0500FFF735FF2290229B002B02D1FFF761FF2390239B002B25D1224A0092009A2404144300941C4A69461160B7
:404E80001E481C490860C0461268120F1207F02109068A4204D1154B1B68FF2213400BE0124A1268120F1207A02109068A4203D00E4B1B68FF2213402393229B002B07D1BD
:404EC000FFF75CFF2290229B002B01D0229B2393280001F06EFE01E004232393239825B030BDC046FF010000B6D70000080010400400008004001040B6D8000005000080ED
:404F000070B5040001F051FE0500102C05D8104A136803218B43136016E0202C07D80C490B6803229343023A13430B600CE0302C07D807490B6803229343013A13430B60EE
:404F400002E0002000F054F8280001F032FE70BD300010400C4B1B689B001C22134018330A4A1268920803210A40D34008490868084A02400A60084A944663441B78DBB211
:404F8000064A13607047C046080F03402800034000000740FFFFFFBFCDF1FF0F0C0F0340034B18688023DB05184000D001207047000007401F2318401E3B8340014A136073
:404FC0007047C04600E100E01F2318401E3B8340014A13607047C04680E100E01F2318401E3B8340014A13607047C04680E200E001BE704770B504000D00132802D900206C
:40500000FFF7F6FF1034A40080239B059C4664442068256070BDC04670B504000E00032902D90020FFF7E4FF132C02D90020FFF7DFFF03252540ED00063501F0B6FDA40846
:40504000A400074B9C46644421680323AB4099430B003100A9401943216001F0AAFD70BD00E400E010B5040006E0084B586801F093FD074B9C46644480231B029C42F4D826
:40508000024B9868604301F087FD10BD4C0600200080FFFF70B582B000F0F0F800284DD001F083FD0500264B1A6892001C231A401832244B1B689B0803210B40DA4000213D
:4050C000214B1960214C2168214B0B4021494A438021C9018C466244D20B013A5205520D1343A0225203134323601B4B1B6801933020FFF705FF194A13688021C9050B43CE
:4051000013602668164B1E40002407E00120FFF7A9FF1034A30533430C4A1360EE2CF5D90120FFF79FFFFF239B051E43074B1E60019A094B1A60280001F03BFD02B070BD91
:40514000080F0340280003400C0F03400800074000F800C040420F003000104000000740FFFF3FC0F0B583B0040018280BD01C2809D0202807D0242805D0282803D02C28E5
:4051800001D0302849D101F010FD0190FFF708FF002803D0FFF7DEFE012600E00026214A136807218B4313601F4BE3181B78DBB21E4A13601E4A13688B4313601D48036883
:4051C0007F22934319001C4BE3181B7813400B430360322001F0E0FC182C16D9114F3B680725AB431A0023001C3B9B082B4013433B60322001F0D0FC3A68AA432300183B10
:405200009B082C001C4014433C60012E01D1FFF741FF019801F0CDFC02E00020FFF7E8FE03B0F0BD080F0340CDF1FF0F0C0F0340100F0340180F0340B4F1FF0F10B5034B72
:405240001B7B584301F0A8FC10BDC0464C06002010B501F0AAFC044A136804218B43136030BF01F0A6FC10BD10ED00E0024B1868800F80077047C0460C020740034B1B68A6
:40528000002B01DA012000E000207047000007400022014B1A60704738000340014A024B1A6070476588EDAC38000340024A116801230B43136070474400034010B5040034
:4052C000FFF7D4FFA0421AD0144A136803218B431360134B1B689B0F01D17C2001E086204000FFF7ABFF01F060FC0D4A13689B009B08A40FA4071C43146001F05AFC074B54
:405300001B6803229343064A1268920F01D1023200E001221343014A136010BD140207400C02074010B5040001F03FFC054B1C4005490B68054A134023430B600B6801F0AF
:4053400038FC10BD0404040010020740FBFBFBFF10B5244B1B685B0715D5234B1B685B070ED5224B5969042001401F4C22688A4322605A6982435A619B68002B00D09847A6
:405380000420FFF7CFFF174B1B685B0518D5164B1B685B0510D5154B59698022D2001140114802688A4302605969114A0A405A61DB68002B00D098478020C000FFF7B2FF8B
:4053C000084B1B685B030CD5074B1B685B0304D5064B1B69002B00D098478020C002FFF7A1FF10BD100207406006002014080020FFFBFFFF10B501F0D8FB044A1368012191
:405400008B43136001F0D5FB10BDC046000006400004000C014B18607047C046080106400004000C014B18607047C046140106400004000C014B18607047C0460C010640A1
:4054400070B504000D0001F0B0FBAC40024B1C6001F0AFFB70BDC0460800064010B501F0A4FB064A116801230B43136001F0A1FB18210120FFF7E4FF10BDC04600000640AD
:40548000014B18607047C0463801064010B50D4C8023DB042360236823600020FFF7B8FF236823600C22084B1A600120FFF7E8FF3122064B1A602820FFF7B2FF1420FFF7B0
:4054C000B7FF10BD00010640240106402801064010B5064B1B78002B04D1FFF7D7FF0122024B1A70FFF7BAFF10BDC0462C08002004490A68D2B204239A4380001840104351
:405500000860704700020440024B186880080123184070470402044004490A687F231A40C301D8B2104308607047C04600010440024B1868C009012318407047040104405C
:4055400004490A68D2B240239A438001184010430860704700010440024B186880090123184070470401044004490A68D2B220239A43400118401043086070470001044093
:40558000024B186840090123184070470401044004490A68D2B210239A430001184010430860704700010440024B186800090123184070470401044004490A68D2B2082336
:4055C0009A43C000184010430860704700010440024B1868C0080123184070470401044004490A68D2B204239A438000184010430860704700010440024B1868800801239F
:40560000184070470401044004490A68D2B202239A434000184010430860704700010440024B186840080123184070470401044004490A68D2B202239A43400018401043BD
:405640000860704700030440024B186840080123184070470403044004490A68D2B240239A438001184010430860704700020440024B18688009012318407047040204404A
:4056800004490A68D2B220239A434001184010430860704700020440024B186840090123184070470402044004490A68D2B210239A4300011840104308607047000204403F
:4056C000024B186800090123184070470402044004490A68D2B208239A43C000184010430860704700020440024B1868C0080123184070470402044010B5084B1B78002B54
:4057000006D100F015F900F04FF90122034B1A7000F044F800F092FB10BDC0462D08002010B5FFF7E9FF041E02D100F0BFFA0400002C03D100F07CFA0028FBD100F0DCF92C
:4057400000F086F9200010BD0022024B1A7000207047C0462D08002070B50E4E0024002513E06B0904339B000B4A9B581F222A40D340DB0707D5300000F048F80400310046
:40578000280000F0A9F81C360135052DE9D9200070BDC0466C8B0000440F002070B5002309E012491A1D92008818002444600120404250500133002BF3D00D4C062310E063
:4057C0006668A27E094B5B1900211976012A06D12069002803D0F179228B02F03EFE1C342B005D1E002BEBD170BDC046440F00206C8B000030B50B884A889C1A0025CD808C
:405800000079844200DDCC8030BDC046F0B55F4680B484B00600837E062B02D10122934601E000229346F568B46872680192029300270023039314E0029A2100280000F054
:4058400087F9029A2100019800F090F9039021000198FFF7CFFF0A345B46002B00D106350137338B9F42E7D3039804B004BC9346F0BDC046F0B50A8B8D684F680B6901210A
:4058800025E00C00044003D17E88BA79B21802E07A88BE79921BEE88B24201D3002200E00A00A24202D01E78013E1E70A24202D01C78002C07D188431043002A01D1FA79B6
:4058C00000E001221A7049000A3501336246541EA446002AD5D1F0BD70B504008A7E134B1B181D7E012A04D12800FFF7C3FF050002E00020FFF77CFB0C4B1B191D766309A3
:405900001F2214401E3AA240002D07D104339B000649CB1859689143596006E004339B000249CB1859680A435A6070BD440F002010B50C4CB8220021200002F08EFD0A4BE9
:40594000238090231B016380084BA3800823E38302221833E254200022305232044902F073FD10BD440F00200E8BFFFFB80B0000188B000005280FD8C200121A9300084A5D
:40598000D3186C331B888B4208D9064B1818037E01208840184002E0002000E000207047188B0000440F00200023024AD380024A13607047440F002078080020FF23194034
:4059C000062902D08318002119715300195AC31859808218002313727047C04670B506000D00012305E0220029003000FFF7E6FF23005C1E002BF6D170BDC04670B5094C14
:405A0000C3001D1AAA00A21895688A0051184A00AA181B1A99006118897E1000FFF7DEFF70BDC0466C8B000070B50500C200121A9300064AD3181B8B04E021002800FFF702
:405A4000DDFF23005C1E002BF7D170BD6C8B000010B5062303E02000FFF7E6FF23005C1E002BF8D110BDC046F0B501230EE0FF231340062B09D065006F5A2E1973001F52D7
:405A80006F5AC3185F806D5A9D8023005C1E002BEDD1F0BD70B50500C200121A93000F4AD3181B8B16E0EA00521B93000B4AD318A200121951009A6894466144DE68300082
:405AC0009A7E062A03D063001B1958003018FFF7CBFF23005C1E002BE5D170BD6C8B000010B5062303E02000FFF7D4FF23005C1E002BF8D110BDC04610B5FFF7F1FF10BD5C
:405B0000F0B5012420E0FF241440062C1BD05C00665AE7187D002D5A7619E7187D0045196F88BC466644AF88F619B6086746AF80E7187F003F5A6F80655AAC46E7187D00C9
:405B400067462F520E531C00631E002CDBD1F0BD10B5FFF7D5FF10BD9840504380235B009A1A51434018000A7047C046F0B5474680B482B007000E00019201233EE0630063
:405B8000985BF3185988884205D3431A321900251572012201E00B1A0022002A11D17D79AB420ED933191B7A3A7A934205D3220001993000FFF702FF1FE0321901331372C7
:405BC0001BE03D79AB4204D97D79AB4215D2002A13D1FF23019A1340062B0ED00902331998461B79194308230522FFF7B5FF020A6300F3185A804346187123005C1E002BE4
:405C0000BDD1002002B004BC9046F0BD05230B737047C04610B5044A1168044B0B40136000F0A6FB10BDC04600040240FFF0FFFF024BDB68802018407047C046440F002076
:405C400010B50E4BDB68DB030DD405280DD8430904339B00094A9B581F220240D340DB0705D4012404E0112402E0012400E00024002C01D100F08EFB200010BD440F00201D
:405C800010B5084BDB68DB0307D4074B1B78012B05D100F0F9FA002003E0112001E00120404210BD440F00207C08002010B50F4BDB681B0618D400240120404211E0200023
:405CC000FFF7BEFF00280BD1042C03D80122084B5A7002E00022064B5A70FFF7D1FF04E00134052CEBD900E0112010BD440F00207C08002010B504000C4B1B78834214D05E
:405D0000012B01D1FFF786FF012C05D100F02EF90122064B1A7008E0022C06D0042C04D0032C02D00022014B1A7010BD7C08002030B500200D4B16E019680A681C69A243C8
:405D40000A605C6822689D7E0721A9408A4311000622AA400A43226099680A685C69A2430A601C3301300528E6D930BD148C000010B51B4A93780133DBB293709078C0B28D
:405D8000FFF75EFF041E09D1154B9B78052B02D10022134B5A70FFF773FF1EE0104B9B78052B11D10F4B1A8901321A81DA6880218A43DA60DA681202120ADA60DA68040641
:405DC0001443DC60002408E0064AD3681B021B0AD360D16803060B43D360002CC9D110BD7C080020440F0020074A084B1A6001380002074B1860054B1B68002BFBDB054A51
:405E0000024B1A607047C04640000040000001400003014040FF008010B5002409E0E200121B9300044AD31859682000FFF7EEFE0134052CF3D910BD6C8B000010B5FFF7F9
:405E4000EBFFFFF775FF0120FFF754FF002010BD70B5002516E0EB005B1B9A000B4BD658002406E0E3001B1B9800301800F060FA0134EA00521B9300044AD3181B7E9C429C
:405E8000F0D30135052DE6D970BDC0466C8B000070B500F08AFE134A1168134B0B40136000F087FE00F081FE104A136804218B43136000F07EFE00F078FE0D4C23680D4D10
:405EC0002B40C02252001343236000F072FE0120FFF7B4F900F069FE23681D40256000F068FE70BD00040240FFF0FFFF00040440080404403FFEFFFF01390843014B186070
:405F00007047C04600020C4010B5104B1B68702293431C0020230E4AD15C0E4800F060FF0D4B984204D820232343084A13600BE0084B984204D830232343044A136003E0F5
:405F400040232343014A136010BDC04664060020440F002000366E01001BB700014A024B1A60704700008301C0010C4070B5FFF76FFFFFF78DFFC0221203294B1A60294A96
:405F8000116880256D05294311600024264B1C60264B1C601021264B1960264B1C60264B1C60264B1C60264B1C6026480460264B1C6026490E68264B3340C026F6003343CD
:405FC0000B60244B196880267601314319600121214B196013682B43136080235B041F4A13601F491F4A11601F4A14600360FFF7B5FF20231D4AD05CFFF7F6FEFFF784FF96
:406000001B4B1B681B4A13431B4A13600F221B4B1A601B4B1C60053A1A4B1A6070BDC04604020C40A8020C40F4000C40B4020C40C0020C4020030C4084010C4088020C40F2
:4060400080020C4084020C4080010C4000040240FFF0FFFF94020C40A0020C40A4020C40410D000088010C4090020C40440F0020640600200010008000000C4000030C4095
:40608000F0010C4010030C4010B5040000F08DFD06490B687F229343054A1278A218527A13430B6000F085FD10BDC046C0010C40BC8C000010B50300140001208840013810
:4060C000002B02D0190000F08BFE053C012C00D84008002800D1013010BDC04610B50E4B1A78D2B2D3009A1A93000C4AD3185B6859891B7B18045A1F012A02D880229204EA
:406100001043053BDBB2012B02D8490800D10131FFF7F2FE10BDC0467E0800206C8B000010B50300408919881A7BFFF7C3FF0004000C014B186010BD14030C4010B50D201A
:40614000FEF742FF01222D4B1A6000232C490B602C482D4908602D490B6006202C4908602C490A602C490A60832149002B4A11602B4A136003222B4B1A60E123DB0100E04D
:40618000013B264A1268520701D4002BF8D1002B02D10822234B1A60832252001F4B1A600D20FEF71BFF0D20FEF704FF0023194A1360154A1360154A1360154A136050216B
:4061C000154A11604F390E4A11600C4A1360164A1368802149040B4313600222104B1A60E123DB0100E0013B104A1268520701D0002BF8D10E4A0B4B1A6010BD80010C4082
:406200008C010C4001010100B0020C40B4020C4088020C4080020C40F0010C40F0000C40F8000C4040030C4000020C4000000C400103000010B5054AD36805490B43D360D6
:406240000A20FEF7FBFFFFF779FF10BD440F00208000010070B50400857E067E00F0A5FC23681B680F22B24093431A000423B3401343666832680721A9408A4332602268A2
:40628000136000F096FC70BD70B5194E3278D2B2184DD3009A1A9300EB185868164C002323703278D2B2D3009A1A9300EB1899682378DBB29A00D3185A008A180F4B1A60DF
:4062C000FFF7E2FE3378DBB2DA00D31A9A0050592278D2B2D3009A1A9300C018084B1860FFF7B8FF074800F0ABF8FFF7A3FF70BD7E0800206C8B00007F080020FC0F0020E8
:4063000000100020996D000010B5C300181A8300054A9858CB00591A8B00C018034B1860FFF798FF10BDC0466C8B00000010002070B50400007EA57E21680B680F22824004
:4063400093430B6000F031FC61680B680722AA4093431A000623AB4013430B6000F029FCA1680B68607E0122824093430B6070BD10B5064B1B78012B06D1054B1868FFF777
:40638000D7FF0022014B1A7010BDC046800800200010002070B5124EC200121A9300F3185D68C0B20F4C20700120FFF7A3FCFFF7DFFF2378DBB2DA00D31A9A0092590A4BDE
:4063C0001A600A4BDA687F218A43DA602178DA680A43DA602800FFF7A3FEFFF77FFE70BD6C8B00007E08002000100020440F0020014B58677047C0460000002010B5040033
:4064000000F0D3FB044A1168044B0B40A4031C43146000F0CEFB10BD0CE400E0FF3FFFFF80229201014B1A607047C04600E100E080229201014B1A607047C04680E100E0BF
:4064400010B50400FFF7F4FF2000FFF7D1FF0320FFF7D4FFFFF7E4FF10BDC04610B503211320FEF7D9FD23491320FEF7C3FD0122214B1A60214B1B68002B01DA204900E06A
:406480002049214A13680B431360204A204B1A60204A214B1A600023204A1360204A21490A6021490A6021490A688020400202430A601F4A13601F4A136001221E4B1A60F0
:4064C0001E4A11681E4B0B40802189050B43136000230CE09A001B495018002101605C001948215280204001184950500133002BF0D010BD2D66000020003A4080033A40F8
:40650000700210537002005300003A40A500008004003A400000FF0718003A401C003A400200020010003A4014003A4000033A4028023A4038023A4018023A4030003A4047
:40654000FEFFFFDF80003A40081000200410002010B5094B1B68002B0CDB084B1B68002BFBDB054A1368802109060B4313600A20FEF764FE10BDC04600003A4008023A40C8
:4065800010B5064B1B78002B04D1FFF767FF0122024B1A70FFF7DCFF10BDC04681080020024A13685B005B081360704700003A40034A1368802149020B4313607047C04634
:4065C00004003A40024A1168024B0B401360704704003A40FFFFFEFF020083070CD0074B1B680120184001D19307F8D4002804D00122024B1A6000E00020704710023A4006
:4066000010B5041E02D00020FEF7F2FC002C07D1A400054B9C46644420680004000C00E0002000B210BDC04680013A40014B1A681A60704710023A4010B5040000F0B5FA11
:40664000044A13689B009B08A4071C43146000F0B0FA10BD10E400E07047C04670B505000078012404E000F0ABFA285D0134E4B20028F8D170BDC04670B504000309054D62
:40668000E85C00F09DFA0F231C40285D00F098FA70BDC046C08C0000024B1868C00901231840704704000440034B1868C0B27F2290431860C009704710000440014B186422
:4066C0007047C0460000002010B5040000F06DFA044A1368C0218B43A4011C43146000F068FA10BD00E400E00122014B1A60704700E100E00122014B1A60704780E100E088
:4067000010B50400FFF7F6FF2000FFF7D7FF0320FFF7DAFFFFF7E8FF10BDC04604490A68D2B210239A430001184010430860704700030440024B18680009012318407047A9
:4067400004030440014BD8647047C0460000002010B5040000F029FA044A13689B009B08A4071C43146000F024FA10BD00E400E00822014B1A60704700E100E00822014B8B
:406780001A60704780E100E010B50400FFF7F6FF2000FFF7D7FF0020FFF7DAFFFFF7E8FF10BDC04610B5FFF7E9FF0248FFF7CAFF10BDC046254B00000822014B1A60704792
:4067C00080E200E0034A10680423184010608008C0B27047100304400004000C014B18607047C046880106400004000C014B18607047C0469401064070B504000D0000F0A9
:40680000D4F9AC40024B1C6000F0D3F970BDC0460800064010B500F0C8F9064A116804230B43136000F0C5F918210420FFF7E4FF10BDC04600000640014B18607047C046F4
:40684000B801064010B580229204074B1A600C22064B1A600120FFF7EFFF0548FFF7C4FF0020FFF7B9FF10BD80010640A4010640E703000010B5064B1B78002B04D1FFF776
:40688000E1FF0122024B1A70FFF7C4FF10BDC04682080020014B18607047C046B00106408023014AD05070470000002010B5040000F07BF9044A1368C0218B43A4011C43C2
:4068C000146000F076F910BD10E400E080225202014B1A607047C04600E100E080225202014B1A607047C04680E100E010B50400FFF7F4FF2000FFF7D3FF0220FFF7D6FFA9
:40690000FFF7E4FF10BDC0460004000C014B18607047C046C80106400004000C014B18607047C046D401064070B504000D0000F03CF9AC40024B1C6000F03BF970BDC046F8
:406940000800064010B500F030F9064A116808230B43136000F02DF918210820FFF7E4FF10BDC04600000640014B18607047C046F801064010B580229204084B1A600C2215
:40698000074B1A600120FFF7EFFFF420FF30FFF7C3FF0020FFF7B8FF10BDC046C0010640E401064010B5064B1B78002B04D1FFF7E1FF0122024B1A70FFF7C4FF10BDC04634
:4069C00083080020014B18607047C046F00106408423014AD05070470000002010B5040000F0E3F8044A1168044B0B40A4031C43146000F0DEF810BD10E400E0FF3FFFFF39
:406A000080229202014B1A607047C04600E100E080229202014B1A607047C04680E100E010B50400FFF7F4FF2000FFF7D1FF0120FFF7D4FFFFF7E4FF10BDC0460004000CA4
:406A4000014B18607047C046480106400004000C014B18607047C0465401064070B504000D0000F0A2F8AC40024B1C6000F0A1F870BDC0460800064010B500F096F8064AC8
:406A8000116802230B43136000F093F818210220FFF7E4FF10BDC04600000640014B18607047C0467801064010B580229204074B1A600C22064B1A600120FFF7EFFF682020
:406AC000FFF7C4FF0020FFF7B9FF10BD400106406401064010B5064B1B78002B04D1FFF7E3FF0122024B1A70FFF7C6FF10BDC04684080020014B18607047C0467001064023
:406B0000014BD8677047C0460000002010B5040000F04BF8044A13689B009B08A4071C43146000F046F810BD0CE400E080221202014B1A607047C04600E100E080221202F1
:406B4000014B1A607047C04680E100E010B50400FFF7F4FF2000FFF7D3FF0020FFF7D6FFFFF7E4FF10BDC04610B5FFF7E7FF0248FFF7C6FF10BDC046254B000004490A6878
:406B8000D2B220239A434001184010430860704700000440000000000230800803D001300238FCD1C046C0467047EFF3108072B6704780F310887047000000000000000047
:406BC000FEB5494652465B460EB407462E4909688A462E4A12682E48022100F001F903002A480068C0182A4900F0FAF806001F3EB346234A126801219140C9430C00012560
:406C00000026FFF7D2FF814651460B6823400B6058460430FFF7C0FF3800F040284090400B68234003430B605846FFF7B5FF0136072EF1D900200130012090400B68234084
:406C400003430B6058460630FFF7A6FF4846FFF7B0FFC046C046C0460EBC894692469B46FEBDC046C046C046C046C046C046C046C046C046C046C046C046C046C046C04648
:406C8000700600206C060020680600205C06002080250000104B1A78D2B2D3009A1A93000E4AD3185B680E4A11680A04120C188801238340013B9A4206D20A4B1A680A4BC6
:406CC0001B785B00D15205E0064A1168064A127852008B527047C0467E0800206C8B0000D0000C40FC0F0020BC8C000010B5234B1A78D2B2D3009A1A9300214AD3181A7E92
:406D0000013A204B1B78DBB29A421ED91D4A13780133DBB2137019480178C9B2CB00591A8B001749CB189C681378DBB29900CB1859006118144B19600078C0B21178C9B2F3
:406D4000FFF7E2FAFFF7FAF916E000220D4B1A700E4AD1680E4B0B40D3600E4B1B78012B02D1FFF705F807E0084BDA6880218A43DA601A8901321A8110BDC0467E0800200A
:406D80006C8B00007F080020FC0F0020440F0020FFFFFEFF7D08002010B50D4B1B78DBB2DA00D31A9A000B4BD4580B4B1A78D2B2D1008A1A9300E41883225200074B1A60A4
:406DC000FFF768FF2000FFF7B3FAFFF78FFF10BD7E0800206C8B00007F080020F0000C40002243088B4274D303098B425FD3030A8B4244D3030B8B4228D3030C8B420DD393
:406E0000FF22090212BA030C8B4202D31212090265D0030B8B4219D300E0090AC30B8B4201D3CB03C01A5241830B8B4201D38B03C01A5241430B8B4201D34B03C01A52410D
:406E4000030B8B4201D30B03C01A5241C30A8B4201D3CB02C01A5241830A8B4201D38B02C01A5241430A8B4201D34B02C01A5241030A8B4201D30B02C01A5241CDD2C309DD
:406E80008B4201D3CB01C01A524183098B4201D38B01C01A524143098B4201D34B01C01A524103098B4201D30B01C01A5241C3088B4201D3CB00C01A524183088B4201D336
:406EC0008B00C01A524143088B4201D34B00C01A5241411A00D20146524110467047FFE701B5002000F006F802BDC0460029F7D076E770477047C046002B11D1002A0FD19B
:406F0000002900D1002802D00021C943081C07B4024802A14018029003BDC046D9FFFFFF03B4684601B5029800F006F8019B9E4602B00CBC7047C046F0B54D465646444626
:406F40005F46F0B4924683B004000D0099468B422FD82CD04946504601F03EFA29000600200001F039FA331A9846203B9B4600D574E053465A4693401F005346424693408D
:406F80001E00AF4229D826D05B46A41BBD41002B00DA79E0002200230092019301235A4693400193012342469340009319E08242D0D900220023009201930C9B002B01D0F3
:406FC0001C605D600098019903B03CBC90469946A246AB46F0BDA342D6D900220023009201934346002BE8D0FB0772081A4346467B080EE0AB4201D1A2420CD8A41A9D41DC
:40700000012024196D410021013E24184D41002E06D0AB42EED9013E24196D41002EF8D15B460098019900196941002B22DB2B005A46D3402A004446E2401C005B461500FD
:40704000002B2CDB26009E40330026004746BE403200801A994100900191AEE7424620239B1A5246DA40414613004A468A4017001F4382E7424620239B1A2A0046469A4081
:407080002300F3401343D5E74246202300219B1A0022009101920122DA40019282E74246202326009B1ADE402F00B446974066463B003343C9E7C046F8B556465F464D46F0
:4070C0004446F0B40F00FD0FAA4609037C002E005F00450F490A7F0D2943C5001803BC46400A570F640DDB0F3843D2009A4500D1AAE06646A61B002E00DCFFE06346002B05
:4071000039D10300134300D0D9E06B0709D00F232B40042B05D02B1DAB42AD416D4249191D000B0200D482E0CA4B01349C4200D1FEE00A005646C84BED081A405007640544
:4071400052020543120B640D002112030B0D1B056405120B1A436308C04CF60714401C43640064083443280021003CBC90469946A246AB46F8BDB74B9C42C6D080231B046A
:407180001843382E00DDEBE01F2E00DD1EE120239B1B9C4603006746BB40984613004746F3403B436746BA40571EBA4113430200F240EB1A9D42B6411D008A1A7642911BE7
:4071C0000B0231D54A02560A002E00D1B4E0300001F0E4F80300083B1F2B00DDB5E020222900D21AD1409E400A009D4032439C4200DDB1E01C1B631C1F2B00DDD5E020217D
:4072000014002800C91A8C40D8408D400443DA40681E854111002543002476E74146314300D134E2310045466B0700D06FE756464807ED08C9080543864B9C4235D00A03E7
